:1000000020C02FC02EC02DC02CC02BC02AC02AC09B
:1000100028C027C026C025C024C023C022C021C0BC
:1000200020C046C049C06DC091C042C045C069C033
:100030008DC03EC041C0B1C0F2C075C174C114C111
:1000400016C111241FBECFE5D1E0DEBFCDBF20E039
:10005000A0E6B0E001C01D92A03FB207E1F705D3D2
:100060005FC3CECF1F920F920FB60F9211242F9322
:100070003F934F935F936F937F938F939F93AF9330
:10008000BF93CF93DF93EF93FF9384B195B1AC010E
:10009000537020916100309162008CB59DB5803C19
:1000A0009105D8F3F901EF70FF27EF5EFF4F099438
:1000B00088B38C7F88BB37C1809160008823F9F0BA
:1000C000AAECB0E050962D913C91519752968C91AC
:1000D0005297E82FF0E0240F351FEE0FFF1FE65375
:1000E000FF4F60817181261B370B51963C932E93F5
:1000F0005097518340838F5F877052968C93DE9A1E
:1001000012C1809160008823F9F0A7EBB0E050960F
:100110002D913C91519752968C915297E82FF0E097
:10012000240F351FEE0FFF1FE954FF4F60817181CF
:10013000261B370B51963C932E9350975183408347
:100140008F5F877052968C93DE98EDC0809160002F
:100150008823F9F0ADEDB0E050962D913C91519788
:1001600052968C915297E82FF0E0240F351FEE0F36
:10017000FF1FE352FF4F60817181261B370B5196A1
:100180003C932E935097518340838F5F8770529694
:100190008C9388B3836088BBC6C08091600088233D
:1001A000F9F0A7EBB0E050966D917C915197529683
:1001B0008C915297E82FF0E0640F751FEE0FFF1F30
:1001C000E954FF4FC081D1816C1B7D0B51967C930C
:1001D0006E935097518340838F5F877052968C93B4
:1001E000DE9825FD0EC080916600882339F024FD3D
:1001F00002C083E101C083E387B995C084E087B979
:1002000092C080916600882339F024FD02C081E30A
:1002100001C081E187B987C082E087B984C080913D
:100220006000882309F47FC0ADEDB0E050962D91B9
:100230003C91519752968C915297E82FF0E0240F01
:10024000351FEE0FFF1FE352FF4F60817181261BA8
:10025000370B51963C932E935097518340838F5F79
:10026000877052968C935FC081E087B95CC08091A3
:100270006000882309F454C025FF03C0EDE6F0E0D8
:1002800002C0E2E9F0E080916600882399F182E003
:10029000582724FF18C020A131A194A1DF01A90F84
:1002A000B11DA90FB11D240F351F6D917C911197C0
:1002B000261B370B31A320A34D935C9381E0890F5C
:1002C000877084A32DC082A193A124A1DF01A20F76
:1002D000B11DA20FB11D840F951F50962D913C9119
:1002E0005197821B930B93A382A351965C934E93D9
:1002F000509716C020A131A184A1DF01A80FB11D24
:10030000A80FB11D240F351F6D917C911197261BED
:10031000370B31A320A34D935C938F5F877084A329
:1003200088B3836088BB80916100909162000196E0
:100330009093620080936100FF91EF91DF91CF91E4
:10034000BF91AF919F918F917F916F915F914F91ED
:100350003F912F910F900FBE0F901F9018958823FB
:1003600041F090E000000000000000009F5F891352
:10037000F9CF0895DD9B31C0E2E9F0E020A131A181
:1003800082A193A12817390708F062C0EDE6F0E0DA
:1003900020A131A182A193A12817390708F45AC0DE
:1003A00057C060916700709168006817790708F47A
:1003B0004FC04E1B5F0B4217530708F449C0641728
:1003C000750708F445C080916300811102C0DD9873
:1003D0003FC08150809363003BC0E2E9F0E020A180
:1003E00031A182A193A12817390748F582A193A1D1
:1003F00020A131A1821B930B20916B0030916C00E6
:1004000082179307E0F04091690050916A008417C9
:100410009507A8F4EDE6F0E060A171A182A193A197
:100420006817790760F482A193A160A171A1861B6E
:10043000970B8217930718F08417950748F080915F
:100440006300803210F0DD9A03C08C5F80936300FC
:10045000A8950895E2E9F0E082A193A120A131A13D
:10046000821B930BEDE6F0E042A153A100A0F1A1A5
:10047000E02D20916B0030916C008217930708F0FB
:1004800090CFE6CFFC019C01205F3F4F119211926B
:10049000E217F307D9F7FC01128A118A108A08952E
:1004A000109260008DED90E0EDDF8AEC90E0EADFE5
:1004B00087EB90E0E7DFF8941FBC88E18EBD12BCAB
:1004C0001DBC1CBC87EE93E095BD84BD19BC18BC57
:1004D00084E08BB98CB98EB581608EBD81E087B91F
:1004E00086EA86B985E883B91092620010926100AD
:1004F000789480916100909162000497D0F381E03C
:100500008093600010926500109264000F2EFDED44
:10051000EF2EF0E0FF2EF02D0AEC10E0C7EBD0E05C
:10052000C12CD12CF894F70180899189F801208998
:1005300031894889598978948033FBE19F0720F4F9
:1005400020336BE1360718F0C29ADF9A52C0481781
:10055000590718F4841B950B02C08C2D9D2D421752
:10056000530718F4241B350B02C02C2D3D2DC899C0
:1005700009C0803F910518F0C29ADF983AC0C2982E
:10058000DF9837C02817390730F42035310578F166
:10059000C29ADF982EC02035310548F1A0E0B0E0C6
:1005A000AC01BD01440F551F661F771F840F951FB7
:1005B000A61FB71F880F991FAA1FBB1FA90160E0C4
:1005C00070E04A015B01880C991CAA1CBB1C880CBA
:1005D000991CAA1CBB1C480D591D6A1D7B1D841744
:1005E0009507A607B70718F0C298DF9A02C0C2980D
:1005F000DF98F89480916100909162007894209146
:10060000640030916500821B930B843F914008F495
:1006100089CFB0DE80916400909165008C509E4F30
:1006200090936500809364007DCFFC0111A210A21D
:1006300013A212A2DC019C01205F3F4F6D937D93BA
:1006400080A191A1860F971F91A380A31F965C9311
:100650004E931E9782A193A1840F951F93A382A30B
:10066000A217B30759F714A20895F89486E181B947
:1006700089E08BBB18BA80EE8ABB87E087BBC8E2F3
:100680008FEF6DDEC150E1F789B391E0282F28701C
:1006900083FF90E0909366002223C1F0D39A80EF0D
:1006A00090E090936C0080936B0080EA9AE09093C6
:1006B00068008093670080E89CE090936A008093D4
:1006C000690000E012E0C2EED1E016C088E390E0DD
:1006D00090936C0080936B0080E792E090936800A9
:1006E0008093670080EE92E090936A0080936900A7
:1006F0000FEF13E0C8EFD3E0A801BE0182E990E05C
:1007000094DFA801BE018DE690E08FDF78949DE034
:1007100088E10FB6F894A89581BD0FBE91BDC0DEEB
:04072000F894FFCF7B
:00000001FF
