S01700004D696E69495253656E736F72536D642E7372656347
S11300000EC01BC01AC019C018C017C016C015C036
S113001014C013C012C012C010C00FC00EC01124EF
S11300201FBECFEDCDBF20E0A0E6B0E001C01D9221
S1130030AD39B207E1F7D1D1E1C1E2CF1F920F92FE
S11300400FB60F9211242F933F934F935F936F93A7
S11300507F938F939F93AF93BF93EF93FF9384B159
S113006095B1AC015370209162003091630082B766
S11300708831E8F3C901837099278130910551F0E3
S113008038F08230910559F1039709F44DC070C0DE
S1130090C0986EC0809160008823F9F0A7E7B0E0B3
S11300A050962D913C91519752968C915297E82FEE
S11300B0F0E0240F351FEE0FFF1FE958FF4F60815A
S11300C07181261B370B51963C932E935097518385
S11300D040838F5F877052968C93C19A49C08091F8
S11300E060008823F9F0A4E6B0E050962D913C918D
S11300F0519752968C915297E82FF0E0240F351FB8
S1130100EE0FFF1FEC59FF4F60817181261B370BE7
S113011051963C932E935097518340838F5F877001
S113012052968C93C19824C0809160008823F9F082
S1130130AAE8B0E050962D913C91519752968C913B
S11301405297E82FF0E0240F351FEE0FFF1FE657FC
S1130150FF4F60817181261B370B51963C932E9380
S11301605097518340838F5F877052968C93C09AC7
S11301708091620090916300019690936300809354
S11301806200FF91EF91BF91AF919F918F917F9109
S11301906F915F914F913F912F910F900FBE0F90F0
S11301A01F901895F89440916200509163007894E0
S11301B0A895F89420916200309163007894241BF0
S11301C0350B28173907A0F30895FC019C01205F23
S11301D03F4F11921192E217F307D9F7FC01128AEB
S11301E0118A108A0895CF93109260008AE890E0F3
S11301F0ECDF87E790E0E9DF84E690E0E6DFF8945F
S11302001CBC82E08ABD13BE12BE8CE789BD18BC3B
S113021088E088BF89BF83B7826083BFC1E0C7B964
S113022086EA86B985E083B9109263001092620071
S11302307894C398C298BA9884E090E0B3DFC093EE
S1130240600080E49CE9AEDF1092600082E887B928
S1130250BA9A409174005091750080919A009091DF
S11302609B002091870030918800840F951F820F96
S1130270931F21E0843C31E0930708F420E02093AD
S11302806100843C914070F4C4E0C39AC29A85E34F
S113029095E088DFC398C29885E395E083DFC15079
S11302A0A1F702C0C2E0F1CFCF9108958AE890E0AF
S11302B08CDF87E790E089DF84E690E086DF81E0E9
S11302C08093600082E290E06DDF0F2EFAE8EF2E5B
S11302D0F0E0FF2EF02D07E710E0C4E6D0E0A12CFB
S11302E0B12CC12CD12CF894F70180899189F801A3
S11302F0208931894889598978943F9B0DC0803E73
S1130300F5E19F0720F4203E65E1360790F03F9821
S113031083E290E047DF49C0803CE3E09E0748F475
S1130320203CF3E03F0728F43F9A83E290E03ADF71
S11303303CC020336BE1360708F442C08133EBE163
S11303409E07A8F53DC0C398C2982FC0C39AC29A0D
S11303502CC0841B950BA0E0B0E04217530718F59E
S1130360241B350BA90160E070E020353105D8F07D
S113037084179507A607B70758F180916100882371
S113038019F0C39AC29A11C0C39AC2980EC0880FBA
S1130390991FAA1FBB1F84179507A607B70718F054
S11303A0C398C29A02C0C398C298A8959CCFF894E7
S11303B08091620090916300789491FDC4CFC6CF80
S11303C04817590730F28A2D9B2DAC2DBD2DC5CF72
S11303D0209161002111E7CFDACFF89484E084BB47
S11303E018BA8FE087BB78949DE088E10FB6F89443
S11303F0A89581BD0FBE91BDF6DE58DFF894FFCFFE
S9030000FC
